{
  "_format": "hh-sol-artifact-1",
  "contractName": "FootballPredictionMarket",
  "sourceName": "contracts/FootballPredictionMarket.sol",
  "abi": [
    {
      "inputs": [
        {
          "internalType": "address",
          "name": "_relayer",
          "type": "address"
        }
      ],
      "stateMutability": "nonpayable",
      "type": "constructor"
    },
    {
      "inputs": [
        {
          "internalType": "address",
          "name": "owner",
          "type": "address"
        }
      ],
      "name": "OwnableInvalidOwner",
      "type": "error"
    },
    {
      "inputs": [
        {
          "internalType": "address",
          "name": "account",
          "type": "address"
        }
      ],
      "name": "OwnableUnauthorizedAccount",
      "type": "error"
    },
    {
      "inputs": [],
      "name": "ReentrancyGuardReentrantCall",
      "type": "error"
    },
    {
      "anonymous": false,
      "inputs": [
        {
          "indexed": false,
          "internalType": "string",
          "name": "id",
          "type": "string"
        },
        {
          "indexed": false,
          "internalType": "address",
          "name": "bettor",
          "type": "address"
        },
        {
          "indexed": false,
          "internalType": "uint8",
          "name": "prediction",
          "type": "uint8"
        },
        {
          "indexed": false,
          "internalType": "uint256",
          "name": "amount",
          "type": "uint256"
        }
      ],
      "name": "BetPlaced",
      "type": "event"
    },
    {
      "anonymous": false,
      "inputs": [
        {
          "indexed": false,
          "internalType": "string",
          "name": "id",
          "type": "string"
        },
        {
          "indexed": false,
          "internalType": "string",
          "name": "league",
          "type": "string"
        },
        {
          "indexed": false,
          "internalType": "string",
          "name": "homeTeam",
          "type": "string"
        },
        {
          "indexed": false,
          "internalType": "string",
          "name": "awayTeam",
          "type": "string"
        },
        {
          "indexed": false,
          "internalType": "uint256",
          "name": "matchTimestamp",
          "type": "uint256"
        }
      ],
      "name": "MarketCreated",
      "type": "event"
    },
    {
      "anonymous": false,
      "inputs": [
        {
          "indexed": false,
          "internalType": "string",
          "name": "id",
          "type": "string"
        },
        {
          "indexed": false,
          "internalType": "uint8",
          "name": "winningOutcome",
          "type": "uint8"
        }
      ],
      "name": "MarketResolved",
      "type": "event"
    },
    {
      "anonymous": false,
      "inputs": [
        {
          "indexed": true,
          "internalType": "address",
          "name": "previousOwner",
          "type": "address"
        },
        {
          "indexed": true,
          "internalType": "address",
          "name": "newOwner",
          "type": "address"
        }
      ],
      "name": "OwnershipTransferred",
      "type": "event"
    },
    {
      "anonymous": false,
      "inputs": [
        {
          "indexed": false,
          "internalType": "string",
          "name": "id",
          "type": "string"
        },
        {
          "indexed": false,
          "internalType": "string",
          "name": "homeTeam",
          "type": "string"
        },
        {
          "indexed": false,
          "internalType": "string",
          "name": "awayTeam",
          "type": "string"
        },
        {
          "indexed": false,
          "internalType": "uint256",
          "name": "matchTimestamp",
          "type": "uint256"
        }
      ],
      "name": "ResolutionRequested",
      "type": "event"
    },
    {
      "anonymous": false,
      "inputs": [
        {
          "indexed": false,
          "internalType": "string",
          "name": "id",
          "type": "string"
        },
        {
          "indexed": false,
          "internalType": "address",
          "name": "bettor",
          "type": "address"
        },
        {
          "indexed": false,
          "internalType": "uint256",
          "name": "amount",
          "type": "uint256"
        }
      ],
      "name": "WinningsClaimed",
      "type": "event"
    },
    {
      "inputs": [
        {
          "internalType": "uint256",
          "name": "",
          "type": "uint256"
        }
      ],
      "name": "allMarketIds",
      "outputs": [
        {
          "internalType": "string",
          "name": "",
          "type": "string"
        }
      ],
      "stateMutability": "view",
      "type": "function"
    },
    {
      "inputs": [
        {
          "internalType": "string",
          "name": "",
          "type": "string"
        },
        {
          "internalType": "address",
          "name": "",
          "type": "address"
        },
        {
          "internalType": "uint8",
          "name": "",
          "type": "uint8"
        }
      ],
      "name": "bets",
      "outputs": [
        {
          "internalType": "uint256",
          "name": "",
          "type": "uint256"
        }
      ],
      "stateMutability": "view",
      "type": "function"
    },
    {
      "inputs": [
        {
          "internalType": "string",
          "name": "_id",
          "type": "string"
        }
      ],
      "name": "claimWinnings",
      "outputs": [],
      "stateMutability": "nonpayable",
      "type": "function"
    },
    {
      "inputs": [
        {
          "internalType": "string",
          "name": "_id",
          "type": "string"
        },
        {
          "internalType": "string",
          "name": "_league",
          "type": "string"
        },
        {
          "internalType": "string",
          "name": "_homeTeam",
          "type": "string"
        },
        {
          "internalType": "string",
          "name": "_awayTeam",
          "type": "string"
        },
        {
          "internalType": "uint256",
          "name": "_matchTimestamp",
          "type": "uint256"
        }
      ],
      "name": "createMarket",
      "outputs": [],
      "stateMutability": "nonpayable",
      "type": "function"
    },
    {
      "inputs": [],
      "name": "getAllMarkets",
      "outputs": [
        {
          "components": [
            {
              "internalType": "string",
              "name": "id",
              "type": "string"
            },
            {
              "internalType": "string",
              "name": "league",
              "type": "string"
            },
            {
              "internalType": "string",
              "name": "homeTeam",
              "type": "string"
            },
            {
              "internalType": "string",
              "name": "awayTeam",
              "type": "string"
            },
            {
              "internalType": "uint256",
              "name": "matchTimestamp",
              "type": "uint256"
            },
            {
              "internalType": "enum FootballPredictionMarket.MarketState",
              "name": "state",
              "type": "uint8"
            },
            {
              "internalType": "uint256",
              "name": "homePool",
              "type": "uint256"
            },
            {
              "internalType": "uint256",
              "name": "awayPool",
              "type": "uint256"
            },
            {
              "internalType": "uint256",
              "name": "drawPool",
              "type": "uint256"
            },
            {
              "internalType": "uint256",
              "name": "totalPool",
              "type": "uint256"
            }
          ],
          "internalType": "struct FootballPredictionMarket.Market[]",
          "name": "",
          "type": "tuple[]"
        }
      ],
      "stateMutability": "view",
      "type": "function"
    },
    {
      "inputs": [
        {
          "internalType": "string",
          "name": "_id",
          "type": "string"
        },
        {
          "internalType": "address",
          "name": "_user",
          "type": "address"
        },
        {
          "internalType": "uint8",
          "name": "_prediction",
          "type": "uint8"
        }
      ],
      "name": "getBetAmount",
      "outputs": [
        {
          "internalType": "uint256",
          "name": "",
          "type": "uint256"
        }
      ],
      "stateMutability": "view",
      "type": "function"
    },
    {
      "inputs": [],
      "name": "getMarketCount",
      "outputs": [
        {
          "internalType": "uint256",
          "name": "",
          "type": "uint256"
        }
      ],
      "stateMutability": "view",
      "type": "function"
    },
    {
      "inputs": [
        {
          "internalType": "string",
          "name": "",
          "type": "string"
        },
        {
          "internalType": "address",
          "name": "",
          "type": "address"
        }
      ],
      "name": "hasClaimed",
      "outputs": [
        {
          "internalType": "bool",
          "name": "",
          "type": "bool"
        }
      ],
      "stateMutability": "view",
      "type": "function"
    },
    {
      "inputs": [
        {
          "internalType": "string",
          "name": "",
          "type": "string"
        }
      ],
      "name": "markets",
      "outputs": [
        {
          "internalType": "string",
          "name": "id",
          "type": "string"
        },
        {
          "internalType": "string",
          "name": "league",
          "type": "string"
        },
        {
          "internalType": "string",
          "name": "homeTeam",
          "type": "string"
        },
        {
          "internalType": "string",
          "name": "awayTeam",
          "type": "string"
        },
        {
          "internalType": "uint256",
          "name": "matchTimestamp",
          "type": "uint256"
        },
        {
          "internalType": "enum FootballPredictionMarket.MarketState",
          "name": "state",
          "type": "uint8"
        },
        {
          "internalType": "uint256",
          "name": "homePool",
          "type": "uint256"
        },
        {
          "internalType": "uint256",
          "name": "awayPool",
          "type": "uint256"
        },
        {
          "internalType": "uint256",
          "name": "drawPool",
          "type": "uint256"
        },
        {
          "internalType": "uint256",
          "name": "totalPool",
          "type": "uint256"
        }
      ],
      "stateMutability": "view",
      "type": "function"
    },
    {
      "inputs": [],
      "name": "owner",
      "outputs": [
        {
          "internalType": "address",
          "name": "",
          "type": "address"
        }
      ],
      "stateMutability": "view",
      "type": "function"
    },
    {
      "inputs": [
        {
          "internalType": "string",
          "name": "_id",
          "type": "string"
        },
        {
          "internalType": "uint8",
          "name": "_prediction",
          "type": "uint8"
        }
      ],
      "name": "placeBet",
      "outputs": [],
      "stateMutability": "payable",
      "type": "function"
    },
    {
      "inputs": [],
      "name": "relayer",
      "outputs": [
        {
          "internalType": "address",
          "name": "",
          "type": "address"
        }
      ],
      "stateMutability": "view",
      "type": "function"
    },
    {
      "inputs": [],
      "name": "renounceOwnership",
      "outputs": [],
      "stateMutability": "nonpayable",
      "type": "function"
    },
    {
      "inputs": [
        {
          "internalType": "string",
          "name": "_id",
          "type": "string"
        }
      ],
      "name": "requestResolution",
      "outputs": [],
      "stateMutability": "nonpayable",
      "type": "function"
    },
    {
      "inputs": [
        {
          "internalType": "address",
          "name": "_relayer",
          "type": "address"
        }
      ],
      "name": "setRelayer",
      "outputs": [],
      "stateMutability": "nonpayable",
      "type": "function"
    },
    {
      "inputs": [
        {
          "internalType": "string",
          "name": "_id",
          "type": "string"
        },
        {
          "internalType": "uint8",
          "name": "_result",
          "type": "uint8"
        }
      ],
      "name": "submitResult",
      "outputs": [],
      "stateMutability": "nonpayable",
      "type": "function"
    },
    {
      "inputs": [
        {
          "internalType": "address",
          "name": "newOwner",
          "type": "address"
        }
      ],
      "name": "transferOwnership",
      "outputs": [],
      "stateMutability": "nonpayable",
      "type": "function"
    }
  ],
  "bytecode": "0x60806040523480156200001157600080fd5b5060405162003d2d38038062003d2d833981810160405281019062000037919062000293565b33600073ffffffffffffffffffffffffffffffffffffffff168173ffffffffffffffffffffffffffffffffffffffff1603620000ad5760006040517f1e4fbdf7000000000000000000000000000000000000000000000000000000008152600401620000a49190620002d6565b60405180910390fd5b620000be816200013060201b60201c565b506001620000e1620000d5620001f460201b60201c565b6200021f60201b60201c565b6000018190555080600560006101000a81548173ffffffffffffffffffffffffffffffffffffffff021916908373ffffffffffffffffffffffffffffffffffffffff16021790555050620002f3565b60008060009054906101000a900473ffffffffffffffffffffffffffffffffffffffff169050816000806101000a81548173ffffffffffffffffffffffffffffffffffffffff021916908373ffffffffffffffffffffffffffffffffffffffff1602179055508173ffffffffffffffffffffffffffffffffffffffff168173ffffffffffffffffffffffffffffffffffffffff167f8be0079c531659141344cd1fd0a4f28419497f9722a3daafe3b4186f6b6457e060405160405180910390a35050565b60007f9b779b17422d0df92223018b32b4d1fa46e071723d6817e2486d003becc55f0060001b905090565b6000819050919050565b600080fd5b600073ffffffffffffffffffffffffffffffffffffffff82169050919050565b60006200025b826200022e565b9050919050565b6200026d816200024e565b81146200027957600080fd5b50565b6000815190506200028d8162000262565b92915050565b600060208284031215620002ac57620002ab62000229565b5b6000620002bc848285016200027c565b91505092915050565b620002d0816200024e565b82525050565b6000602082019050620002ed6000830184620002c5565b92915050565b613a2a80620003036000396000f3fe6080604052600436106100fe5760003560e01c80638da5cb5b11610095578063c3368ea511610064578063c3368ea514610326578063efbda6611461034f578063f2fde38b14610395578063fd69f3c2146103be578063fdbcf125146103e9576100fe565b80638da5cb5b1461026a578063a0f18d6414610295578063b0772d0b146102be578063bdcb4ab5146102e9576100fe565b80633f4a5d0a116100d15780633f4a5d0a146101d65780636548e9bc146101ff578063715018a6146102285780638406c0791461023f576100fe565b806323188024146101035780632a1228bf146101405780632a3ef71e1461017d5780633cff354914610199575b600080fd5b34801561010f57600080fd5b5061012a600480360381019061012591906122ac565b610412565b6040516101379190612369565b60405180910390f35b34801561014c57600080fd5b5061016760048036038101906101629190612557565b6104be565b60405161017491906125d5565b60405180910390f35b610197600480360381019061019291906125f0565b610506565b005b3480156101a557600080fd5b506101c060048036038101906101bb919061264c565b610838565b6040516101cd91906126c3565b60405180910390f35b3480156101e257600080fd5b506101fd60048036038101906101f891906126de565b61087d565b005b34801561020b57600080fd5b50610226600480360381019061022191906127c9565b610aaa565b005b34801561023457600080fd5b5061023d610af6565b005b34801561024b57600080fd5b50610254610b0a565b6040516102619190612805565b60405180910390f35b34801561027657600080fd5b5061027f610b30565b60405161028c9190612805565b60405180910390f35b3480156102a157600080fd5b506102bc60048036038101906102b791906125f0565b610b59565b005b3480156102ca57600080fd5b506102d3610e6c565b6040516102e09190612aa1565b60405180910390f35b3480156102f557600080fd5b50610310600480360381019061030b9190612557565b61120a565b60405161031d91906125d5565b60405180910390f35b34801561033257600080fd5b5061034d60048036038101906103489190612ac3565b611288565b005b34801561035b57600080fd5b5061037660048036038101906103719190612ac3565b611441565b60405161038c9a99989796959493929190612b1b565b60405180910390f35b3480156103a157600080fd5b506103bc60048036038101906103b791906127c9565b6116d8565b005b3480156103ca57600080fd5b506103d361175e565b6040516103e091906125d5565b60405180910390f35b3480156103f557600080fd5b50610410600480360381019061040b9190612ac3565b61176b565b005b6002818154811061042257600080fd5b90600052602060002001600091509050805461043d90612c02565b80601f016020809104026020016040519081016040528092919081815260200182805461046990612c02565b80156104b65780601f1061048b576101008083540402835291602001916104b6565b820191906000526020600020905b81548152906001019060200180831161049957829003601f168201915b505050505081565b60038380516020810182018051848252602083016020850120818352809550505050505060205281600052604060002060205280600052604060002060009250925050505481565b61050e611fd8565b60006001836040516105209190612c6f565b90815260200160405180910390209050600081600001805461054190612c02565b905003610583576040517f08c379a000000000000000000000000000000000000000000000000000000000815260040161057a90612cd2565b60405180910390fd5b60006005811115610597576105966128a5565b5b8160050160009054906101000a900460ff1660058111156105bb576105ba6128a5565b5b146105fb576040517f08c379a00000000000000000000000000000000000000000000000000000000081526004016105f290612d3e565b60405180910390fd5b80600401544210610641576040517f08c379a000000000000000000000000000000000000000000000000000000000815260040161063890612daa565b60405180910390fd5b60003411610684576040517f08c379a000000000000000000000000000000000000000000000000000000000815260040161067b90612e3c565b60405180910390fd5b60028260ff1611156106cb576040517f08c379a00000000000000000000000000000000000000000000000000000000081526004016106c290612ece565b60405180910390fd5b346003846040516106dc9190612c6f565b908152602001604051809103902060003373ffffffffffffffffffffffffffffffffffffffff1673ffffffffffffffffffffffffffffffffffffffff16815260200190815260200160002060008460ff1660ff168152602001908152602001600020600082825461074d9190612f1d565b92505081905550348160090160008282546107689190612f1d565b9250508190555060008260ff160361079a573481600601600082825461078e9190612f1d565b925050819055506107ee565b60018260ff16036107c557348160070160008282546107b99190612f1d565b925050819055506107ed565b60028260ff16036107ec57348160080160008282546107e49190612f1d565b925050819055505b5b5b7fbe8f8f5187fe964f536a41eda391e63ecbaee0125edc4e849f5ae97611bd6357833384346040516108239493929190612f60565b60405180910390a150610834611ffb565b5050565b6004828051602081018201805184825260208301602085012081835280955050505050506020528060005260406000206000915091509054906101000a900460ff1681565b610885612016565b60006001866040516108979190612c6f565b908152602001604051809103902060000180546108b390612c02565b9050146108f5576040517f08c379a00000000000000000000000000000000000000000000000000000000081526004016108ec90612ff8565b60405180910390fd5b60405180610140016040528086815260200185815260200184815260200183815260200182815260200160006005811115610933576109326128a5565b5b815260200160008152602001600081526020016000815260200160008152506001866040516109629190612c6f565b9081526020016040518091039020600082015181600001908161098591906131c4565b50602082015181600101908161099b91906131c4565b5060408201518160020190816109b191906131c4565b5060608201518160030190816109c791906131c4565b506080820151816004015560a08201518160050160006101000a81548160ff021916908360058111156109fd576109fc6128a5565b5b021790555060c0820151816006015560e0820151816007015561010082015181600801556101208201518160090155905050600285908060018154018082558091505060019003906000526020600020016000909190919091509081610a6391906131c4565b507f219ca484912b6722b80413da62b0acb8409a19ee4167286beda7e6f4789087d58585858585604051610a9b959493929190613296565b60405180910390a15050505050565b610ab2612016565b80600560006101000a81548173ffffffffffffffffffffffffffffffffffffffff021916908373ffffffffffffffffffffffffffffffffffffffff16021790555050565b610afe612016565b610b08600061209d565b565b600560009054906101000a900473ffffffffffffffffffffffffffffffffffffffff1681565b60008060009054906101000a900473ffffffffffffffffffffffffffffffffffffffff16905090565b600560009054906101000a900473ffffffffffffffffffffffffffffffffffffffff1673ffffffffffffffffffffffffffffffffffffffff163373ffffffffffffffffffffffffffffffffffffffff161480610be75750610bb8610b30565b73ffffffffffffffffffffffffffffffffffffffff163373ffffffffffffffffffffffffffffffffffffffff16145b610c26576040517f08c379a0000000000000000000000000000000000000000000000000000000008152600401610c1d90613351565b60405180910390fd5b6000600183604051610c389190612c6f565b9081526020016040518091039020905060016005811115610c5c57610c5b6128a5565b5b8160050160009054906101000a900460ff166005811115610c8057610c7f6128a5565b5b1480610cc1575060006005811115610c9b57610c9a6128a5565b5b8160050160009054906101000a900460ff166005811115610cbf57610cbe6128a5565b5b145b610d00576040517f08c379a0000000000000000000000000000000000000000000000000000000008152600401610cf7906133bd565b60405180910390fd5b60038260ff161115610d47576040517f08c379a0000000000000000000000000000000000000000000000000000000008152600401610d3e9061344f565b60405180910390fd5b60008260ff1603610d845760028160050160006101000a81548160ff02191690836005811115610d7a57610d796128a5565b5b0217905550610e2e565b60018260ff1603610dc15760038160050160006101000a81548160ff02191690836005811115610db757610db66128a5565b5b0217905550610e2d565b60028260ff1603610dfe5760048160050160006101000a81548160ff02191690836005811115610df457610df36128a5565b5b0217905550610e2c565b60058160050160006101000a81548160ff02191690836005811115610e2657610e256128a5565b5b02179055505b5b5b7f9dc5f3aa979166e3973169ba85cc4aff965cdd42156ea7225eb4b13cf11dd14c8383604051610e5f92919061346f565b60405180910390a1505050565b6060600060028054905067ffffffffffffffff811115610e8f57610e8e612395565b5b604051908082528060200260200182016040528015610ec857816020015b610eb56121fd565b815260200190600190039081610ead5790505b50905060005b60028054905081101561120257600160028281548110610ef157610ef061349f565b5b90600052602060002001604051610f089190613551565b908152602001604051809103902060405180610140016040529081600082018054610f3290612c02565b80601f0160208091040260200160405190810160405280929190818152602001828054610f5e90612c02565b8015610fab5780601f10610f8057610100808354040283529160200191610fab565b820191906000526020600020905b815481529060010190602001808311610f8e57829003601f168201915b50505050508152602001600182018054610fc490612c02565b80601f0160208091040260200160405190810160405280929190818152602001828054610ff090612c02565b801561103d5780601f106110125761010080835404028352916020019161103d565b820191906000526020600020905b81548152906001019060200180831161102057829003601f168201915b5050505050815260200160028201805461105690612c02565b80601f016020809104026020016040519081016040528092919081815260200182805461108290612c02565b80156110cf5780601f106110a4576101008083540402835291602001916110cf565b820191906000526020600020905b8154815290600101906020018083116110b257829003601f168201915b505050505081526020016003820180546110e890612c02565b80601f016020809104026020016040519081016040528092919081815260200182805461111490612c02565b80156111615780601f1061113657610100808354040283529160200191611161565b820191906000526020600020905b81548152906001019060200180831161114457829003601f168201915b50505050508152602001600482015481526020016005820160009054906101000a900460ff166005811115611199576111986128a5565b5b60058111156111ab576111aa6128a5565b5b81526020016006820154815260200160078201548152602001600882015481526020016009820154815250508282815181106111ea576111e961349f565b5b60200260200101819052508080600101915050610ece565b508091505090565b600060038460405161121c9190612c6f565b908152602001604051809103902060008473ffffffffffffffffffffffffffffffffffffffff1673ffffffffffffffffffffffffffffffffffffffff16815260200190815260200160002060008360ff1660ff1681526020019081526020016000205490509392505050565b600060018260405161129a9190612c6f565b9081526020016040518091039020905060008160000180546112bb90612c02565b9050036112fd576040517f08c379a00000000000000000000000000000000000000000000000000000000081526004016112f490612cd2565b60405180910390fd5b60006005811115611311576113106128a5565b5b8160050160009054906101000a900460ff166005811115611335576113346128a5565b5b14611375576040517f08c379a000000000000000000000000000000000000000000000000000000000815260040161136c90612d3e565b60405180910390fd5b61151881600401546113879190612f1d565b4210156113c9576040517f08c379a00000000000000000000000000000000000000000000000000000000081526004016113c0906135b4565b60405180910390fd5b60018160050160006101000a81548160ff021916908360058111156113f1576113f06128a5565b5b02179055507fd813010721d218ba016553ac0fe8ce9df24dd3b93ac7996057ff2a2b130fc73382826002018360030184600401546040516114359493929190613658565b60405180910390a15050565b60018180516020810182018051848252602083016020850120818352809550505050505060009150905080600001805461147a90612c02565b80601f01602080910402602001604051908101604052809291908181526020018280546114a690612c02565b80156114f35780601f106114c8576101008083540402835291602001916114f3565b820191906000526020600020905b8154815290600101906020018083116114d657829003601f168201915b50505050509080600101805461150890612c02565b80601f016020809104026020016040519081016040528092919081815260200182805461153490612c02565b80156115815780601f1061155657610100808354040283529160200191611581565b820191906000526020600020905b81548152906001019060200180831161156457829003601f168201915b50505050509080600201805461159690612c02565b80601f01602080910402602001604051908101604052809291908181526020018280546115c290612c02565b801561160f5780601f106115e45761010080835404028352916020019161160f565b820191906000526020600020905b8154815290600101906020018083116115f257829003601f168201915b50505050509080600301805461162490612c02565b80601f016020809104026020016040519081016040528092919081815260200182805461165090612c02565b801561169d5780601f106116725761010080835404028352916020019161169d565b820191906000526020600020905b81548152906001019060200180831161168057829003601f168201915b5050505050908060040154908060050160009054906101000a900460ff1690806006015490806007015490806008015490806009015490508a565b6116e0612016565b600073ffffffffffffffffffffffffffffffffffffffff168173ffffffffffffffffffffffffffffffffffffffff16036117525760006040517f1e4fbdf70000000000000000000000000000000000000000000000000000000081526004016117499190612805565b60405180910390fd5b61175b8161209d565b50565b6000600280549050905090565b611773611fd8565b60006001826040516117859190612c6f565b90815260200160405180910390209050600260058111156117a9576117a86128a5565b5b8160050160009054906101000a900460ff1660058111156117cd576117cc6128a5565b5b148061180e5750600360058111156117e8576117e76128a5565b5b8160050160009054906101000a900460ff16600581111561180c5761180b6128a5565b5b145b8061184e575060046005811115611828576118276128a5565b5b8160050160009054906101000a900460ff16600581111561184c5761184b6128a5565b5b145b8061188d5750600580811115611867576118666128a5565b5b8160050160009054906101000a900460ff16600581111561188b5761188a6128a5565b5b145b6118cc576040517f08c379a00000000000000000000000000000000000000000000000000000000081526004016118c3906136fe565b60405180910390fd5b6004826040516118dc9190612c6f565b908152602001604051809103902060003373ffffffffffffffffffffffffffffffffffffffff1673ffffffffffffffffffffffffffffffffffffffff16815260200190815260200160002060009054906101000a900460ff1615611975576040517f08c379a000000000000000000000000000000000000000000000000000000000815260040161196c9061376a565b60405180910390fd5b600060058081111561198a576119896128a5565b5b8260050160009054906101000a900460ff1660058111156119ae576119ad6128a5565b5b14806119be575060008260090154145b15611b30576003836040516119d39190612c6f565b908152602001604051809103902060003373ffffffffffffffffffffffffffffffffffffffff1673ffffffffffffffffffffffffffffffffffffffff1681526020019081526020016000206000600260ff16815260200190815260200160002054600384604051611a449190612c6f565b908152602001604051809103902060003373ffffffffffffffffffffffffffffffffffffffff1673ffffffffffffffffffffffffffffffffffffffff1681526020019081526020016000206000600160ff16815260200190815260200160002054600385604051611ab59190612c6f565b908152602001604051809103902060003373ffffffffffffffffffffffffffffffffffffffff1673ffffffffffffffffffffffffffffffffffffffff16815260200190815260200160002060008060ff16815260200190815260200160002054611b1f9190612f1d565b611b299190612f1d565b9050611e2c565b60008060026005811115611b4757611b466128a5565b5b8460050160009054906101000a900460ff166005811115611b6b57611b6a6128a5565b5b03611b80576000915083600601549050611bda565b60036005811115611b9457611b936128a5565b5b8460050160009054906101000a900460ff166005811115611bb857611bb76128a5565b5b03611bcd576001915083600701549050611bd9565b60029150836008015490505b5b6000600386604051611bec9190612c6f565b908152602001604051809103902060003373ffffffffffffffffffffffffffffffffffffffff1673ffffffffffffffffffffffffffffffffffffffff16815260200190815260200160002060008460ff1660ff16815260200190815260200160002054905060008111611c94576040517f08c379a0000000000000000000000000000000000000000000000000000000008152600401611c8b906137d6565b60405180910390fd5b6000821115611cbf5781856009015482611cae91906137f6565b611cb89190613867565b9350611e28565b600386604051611ccf9190612c6f565b908152602001604051809103902060003373ffffffffffffffffffffffffffffffffffffffff1673ffffffffffffffffffffffffffffffffffffffff1681526020019081526020016000206000600260ff16815260200190815260200160002054600387604051611d409190612c6f565b908152602001604051809103902060003373ffffffffffffffffffffffffffffffffffffffff1673ffffffffffffffffffffffffffffffffffffffff1681526020019081526020016000206000600160ff16815260200190815260200160002054600388604051611db19190612c6f565b908152602001604051809103902060003373ffffffffffffffffffffffffffffffffffffffff1673ffffffffffffffffffffffffffffffffffffffff16815260200190815260200160002060008060ff16815260200190815260200160002054611e1b9190612f1d565b611e259190612f1d565b93505b5050505b60008111611e6f576040517f08c379a0000000000000000000000000000000000000000000000000000000008152600401611e66906138e4565b60405180910390fd5b6001600484604051611e819190612c6f565b908152602001604051809103902060003373ffffffffffffffffffffffffffffffffffffffff1673ffffffffffffffffffffffffffffffffffffffff16815260200190815260200160002060006101000a81548160ff02191690831515021790555060003373ffffffffffffffffffffffffffffffffffffffff1682604051611f0990613935565b60006040518083038185875af1925050503d8060008114611f46576040519150601f19603f3d011682016040523d82523d6000602084013e611f4b565b606091505b5050905080611f8f576040517f08c379a0000000000000000000000000000000000000000000000000000000008152600401611f8690613996565b60405180910390fd5b7f7175967b5ddee4d7986318165167133a8c193aa59b05f411ec131d4f124a3f3d843384604051611fc2939291906139b6565b60405180910390a1505050611fd5611ffb565b50565b611fe0612161565b6002611ff2611fed6121a2565b6121cd565b60000181905550565b600161200d6120086121a2565b6121cd565b60000181905550565b61201e6121d7565b73ffffffffffffffffffffffffffffffffffffffff1661203c610b30565b73ffffffffffffffffffffffffffffffffffffffff161461209b5761205f6121d7565b6040517f118cdaa70000000000000000000000000000000000000000000000000000000081526004016120929190612805565b60405180910390fd5b565b60008060009054906101000a900473ffffffffffffffffffffffffffffffffffffffff169050816000806101000a81548173ffffffffffffffffffffffffffffffffffffffff021916908373ffffffffffffffffffffffffffffffffffffffff1602179055508173ffffffffffffffffffffffffffffffffffffffff168173ffffffffffffffffffffffffffffffffffffffff167f8be0079c531659141344cd1fd0a4f28419497f9722a3daafe3b4186f6b6457e060405160405180910390a35050565b6121696121df565b156121a0576040517f3ee5aeb500000000000000000000000000000000000000000000000000000000815260040160405180910390fd5b565b60007f9b779b17422d0df92223018b32b4d1fa46e071723d6817e2486d003becc55f0060001b905090565b6000819050919050565b600033905090565b600060026121f36121ee6121a2565b6121cd565b6000015414905090565b6040518061014001604052806060815260200160608152602001606081526020016060815260200160008152602001600060058111156122405761223f6128a5565b5b8152602001600081526020016000815260200160008152602001600081525090565b6000604051905090565b600080fd5b600080fd5b6000819050919050565b61228981612276565b811461229457600080fd5b50565b6000813590506122a681612280565b92915050565b6000602082840312156122c2576122c161226c565b5b60006122d084828501612297565b91505092915050565b600081519050919050565b600082825260208201905092915050565b60005b838110156123135780820151818401526020810190506122f8565b60008484015250505050565b6000601f19601f8301169050919050565b600061233b826122d9565b61234581856122e4565b93506123558185602086016122f5565b61235e8161231f565b840191505092915050565b600060208201905081810360008301526123838184612330565b905092915050565b600080fd5b600080fd5b7f4e487b7100000000000000000000000000000000000000000000000000000000600052604160045260246000fd5b6123cd8261231f565b810181811067ffffffffffffffff821117156123ec576123eb612395565b5b80604052505050565b60006123ff612262565b905061240b82826123c4565b919050565b600067ffffffffffffffff82111561242b5761242a612395565b5b6124348261231f565b9050602081019050919050565b82818337600083830152505050565b600061246361245e84612410565b6123f5565b90508281526020810184848401111561247f5761247e612390565b5b61248a848285612441565b509392505050565b600082601f8301126124a7576124a661238b565b5b81356124b7848260208601612450565b91505092915050565b600073ffffffffffffffffffffffffffffffffffffffff82169050919050565b60006124eb826124c0565b9050919050565b6124fb816124e0565b811461250657600080fd5b50565b600081359050612518816124f2565b92915050565b600060ff82169050919050565b6125348161251e565b811461253f57600080fd5b50565b6000813590506125518161252b565b92915050565b6000806000606084860312156125705761256f61226c565b5b600084013567ffffffffffffffff81111561258e5761258d612271565b5b61259a86828701612492565b93505060206125ab86828701612509565b92505060406125bc86828701612542565b9150509250925092565b6125cf81612276565b82525050565b60006020820190506125ea60008301846125c6565b92915050565b600080604083850312156126075761260661226c565b5b600083013567ffffffffffffffff81111561262557612624612271565b5b61263185828601612492565b925050602061264285828601612542565b9150509250929050565b600080604083850312156126635761266261226c565b5b600083013567ffffffffffffffff81111561268157612680612271565b5b61268d85828601612492565b925050602061269e85828601612509565b9150509250929050565b60008115159050919050565b6126bd816126a8565b82525050565b60006020820190506126d860008301846126b4565b92915050565b600080600080600060a086880312156126fa576126f961226c565b5b600086013567ffffffffffffffff81111561271857612717612271565b5b61272488828901612492565b955050602086013567ffffffffffffffff81111561274557612744612271565b5b61275188828901612492565b945050604086013567ffffffffffffffff81111561277257612771612271565b5b61277e88828901612492565b935050606086013567ffffffffffffffff81111561279f5761279e612271565b5b6127ab88828901612492565b92505060806127bc88828901612297565b9150509295509295909350565b6000602082840312156127df576127de61226c565b5b60006127ed84828501612509565b91505092915050565b6127ff816124e0565b82525050565b600060208201905061281a60008301846127f6565b92915050565b600081519050919050565b600082825260208201905092915050565b6000819050602082019050919050565b600082825260208201905092915050565b6000612868826122d9565b612872818561284c565b93506128828185602086016122f5565b61288b8161231f565b840191505092915050565b61289f81612276565b82525050565b7f4e487b7100000000000000000000000000000000000000000000000000000000600052602160045260246000fd5b600681106128e5576128e46128a5565b5b50565b60008190506128f6826128d4565b919050565b6000612906826128e8565b9050919050565b612916816128fb565b82525050565b600061014083016000830151848203600086015261293a828261285d565b91505060208301518482036020860152612954828261285d565b9150506040830151848203604086015261296e828261285d565b91505060608301518482036060860152612988828261285d565b915050608083015161299d6080860182612896565b5060a08301516129b060a086018261290d565b5060c08301516129c360c0860182612896565b5060e08301516129d660e0860182612896565b506101008301516129eb610100860182612896565b50610120830151612a00610120860182612896565b508091505092915050565b6000612a17838361291c565b905092915050565b6000602082019050919050565b6000612a3782612820565b612a41818561282b565b935083602082028501612a538561283c565b8060005b85811015612a8f5784840389528151612a708582612a0b565b9450612a7b83612a1f565b925060208a01995050600181019050612a57565b50829750879550505050505092915050565b60006020820190508181036000830152612abb8184612a2c565b905092915050565b600060208284031215612ad957612ad861226c565b5b600082013567ffffffffffffffff811115612af757612af6612271565b5b612b0384828501612492565b91505092915050565b612b15816128fb565b82525050565b6000610140820190508181036000830152612b36818d612330565b90508181036020830152612b4a818c612330565b90508181036040830152612b5e818b612330565b90508181036060830152612b72818a612330565b9050612b8160808301896125c6565b612b8e60a0830188612b0c565b612b9b60c08301876125c6565b612ba860e08301866125c6565b612bb66101008301856125c6565b612bc46101208301846125c6565b9b9a5050505050505050505050565b7f4e487b7100000000000000000000000000000000000000000000000000000000600052602260045260246000fd5b60006002820490506001821680612c1a57607f821691505b602082108103612c2d57612c2c612bd3565b5b50919050565b600081905092915050565b6000612c49826122d9565b612c538185612c33565b9350612c638185602086016122f5565b80840191505092915050565b6000612c7b8284612c3e565b915081905092915050565b7f4d61726b657420646f6573206e6f742065786973740000000000000000000000600082015250565b6000612cbc6015836122e4565b9150612cc782612c86565b602082019050919050565b60006020820190508181036000830152612ceb81612caf565b9050919050565b7f4d61726b6574206973206e6f74206f70656e0000000000000000000000000000600082015250565b6000612d286012836122e4565b9150612d3382612cf2565b602082019050919050565b60006020820190508181036000830152612d5781612d1b565b9050919050565b7f4d617463682068617320616c7265616479207374617274656400000000000000600082015250565b6000612d946019836122e4565b9150612d9f82612d5e565b602082019050919050565b60006020820190508181036000830152612dc381612d87565b9050919050565b7f42657420616d6f756e74206d7573742062652067726561746572207468616e2060008201527f3000000000000000000000000000000000000000000000000000000000000000602082015250565b6000612e266021836122e4565b9150612e3182612dca565b604082019050919050565b60006020820190508181036000830152612e5581612e19565b9050919050565b7f496e76616c69642070726564696374696f6e2028303d484f4d452c20313d415760008201527f41592c20323d4452415729000000000000000000000000000000000000000000602082015250565b6000612eb8602b836122e4565b9150612ec382612e5c565b604082019050919050565b60006020820190508181036000830152612ee781612eab565b9050919050565b7f4e487b7100000000000000000000000000000000000000000000000000000000600052601160045260246000fd5b6000612f2882612276565b9150612f3383612276565b9250828201905080821115612f4b57612f4a612eee565b5b92915050565b612f5a8161251e565b82525050565b60006080820190508181036000830152612f7a8187612330565b9050612f8960208301866127f6565b612f966040830185612f51565b612fa360608301846125c6565b95945050505050565b7f4d61726b657420616c7265616479206578697374730000000000000000000000600082015250565b6000612fe26015836122e4565b9150612fed82612fac565b602082019050919050565b6000602082019050818103600083015261301181612fd5565b9050919050565b60008190508160005260206000209050919050565b60006020601f8301049050919050565b600082821b905092915050565b60006008830261307a7fffffffffffffffffffffffffffffffffffffffffffffffffffffffffffffffff8261303d565b613084868361303d565b95508019841693508086168417925050509392505050565b6000819050919050565b60006130c16130bc6130b784612276565b61309c565b612276565b9050919050565b6000819050919050565b6130db836130a6565b6130ef6130e7826130c8565b84845461304a565b825550505050565b600090565b6131046130f7565b61310f8184846130d2565b505050565b5b81811015613133576131286000826130fc565b600181019050613115565b5050565b601f8211156131785761314981613018565b6131528461302d565b81016020851015613161578190505b61317561316d8561302d565b830182613114565b50505b505050565b600082821c905092915050565b600061319b6000198460080261317d565b1980831691505092915050565b60006131b4838361318a565b9150826002028217905092915050565b6131cd826122d9565b67ffffffffffffffff8111156131e6576131e5612395565b5b6131f08254612c02565b6131fb828285613137565b600060209050601f83116001811461322e576000841561321c578287015190505b61322685826131a8565b86555061328e565b601f19841661323c86613018565b60005b828110156132645784890151825560018201915060208501945060208101905061323f565b86831015613281578489015161327d601f89168261318a565b8355505b6001600288020188555050505b505050505050565b600060a08201905081810360008301526132b08188612330565b905081810360208301526132c48187612330565b905081810360408301526132d88186612330565b905081810360608301526132ec8185612330565b90506132fb60808301846125c6565b9695505050505050565b7f4e6f7420617574686f72697a6564000000000000000000000000000000000000600082015250565b600061333b600e836122e4565b915061334682613305565b602082019050919050565b6000602082019050818103600083015261336a8161332e565b9050919050565b7f496e76616c696420737461746500000000000000000000000000000000000000600082015250565b60006133a7600d836122e4565b91506133b282613371565b602082019050919050565b600060208201905081810360008301526133d68161339a565b9050919050565b7f496e76616c696420726573756c742028303d482c20313d412c20323d442c203360008201527f3d43414e43454c45442900000000000000000000000000000000000000000000602082015250565b6000613439602a836122e4565b9150613444826133dd565b604082019050919050565b600060208201905081810360008301526134688161342c565b9050919050565b600060408201905081810360008301526134898185612330565b90506134986020830184612f51565b9392505050565b7f4e487b7100000000000000000000000000000000000000000000000000000000600052603260045260246000fd5b600081546134db81612c02565b6134e58186612c33565b94506001821660008114613500576001811461351557613548565b60ff1983168652811515820286019350613548565b61351e85613018565b60005b8381101561354057815481890152600182019150602081019050613521565b838801955050505b50505092915050565b600061355d82846134ce565b915081905092915050565b7f4d61746368206973206e6f742066696e69736865642079657400000000000000600082015250565b600061359e6019836122e4565b91506135a982613568565b602082019050919050565b600060208201905081810360008301526135cd81613591565b9050919050565b600081546135e181612c02565b6135eb81866122e4565b94506001821660008114613606576001811461361c5761364f565b60ff19831686528115156020028601935061364f565b61362585613018565b60005b8381101561364757815481890152600182019150602081019050613628565b808801955050505b50505092915050565b600060808201905081810360008301526136728187612330565b9050818103602083015261368681866135d4565b9050818103604083015261369a81856135d4565b90506136a960608301846125c6565b95945050505050565b7f4d61726b6574206e6f74207265736f6c76656400000000000000000000000000600082015250565b60006136e86013836122e4565b91506136f3826136b2565b602082019050919050565b60006020820190508181036000830152613717816136db565b9050919050565b7f416c726561647920636c61696d65640000000000000000000000000000000000600082015250565b6000613754600f836122e4565b915061375f8261371e565b602082019050919050565b6000602082019050818103600083015261378381613747565b9050919050565b7f4e6f2077696e6e696e6720626574730000000000000000000000000000000000600082015250565b60006137c0600f836122e4565b91506137cb8261378a565b602082019050919050565b600060208201905081810360008301526137ef816137b3565b9050919050565b600061380182612276565b915061380c83612276565b925082820261381a81612276565b9150828204841483151761383157613830612eee565b5b5092915050565b7f4e487b7100000000000000000000000000000000000000000000000000000000600052601260045260246000fd5b600061387282612276565b915061387d83612276565b92508261388d5761388c613838565b5b828204905092915050565b7f4e6f7468696e6720746f20636c61696d00000000000000000000000000000000600082015250565b60006138ce6010836122e4565b91506138d982613898565b602082019050919050565b600060208201905081810360008301526138fd816138c1565b9050919050565b600081905092915050565b50565b600061391f600083613904565b915061392a8261390f565b600082019050919050565b600061394082613912565b9150819050919050565b7f5472616e73666572206661696c65640000000000000000000000000000000000600082015250565b6000613980600f836122e4565b915061398b8261394a565b602082019050919050565b600060208201905081810360008301526139af81613973565b9050919050565b600060608201905081810360008301526139d08186612330565b90506139df60208301856127f6565b6139ec60408301846125c6565b94935050505056fea26469706673582212209391d3c276e0fb9fdc6ab8c40bedfef6e0c8dd02c7f8679206ff52971ec8e43264736f6c63430008160033",
  "linkReferences": {},
  "deployedLinkReferences": {}
}